{
  "_format": "hh-sol-artifact-1",
  "contractName": "PropertyTemplate",
  "sourceName": "contracts/PropertyTemplate.sol",
  "abi": [
    {
      "inputs": [
        {
          "internalType": "string",
          "name": "_name",
          "type": "string"
        },
        {
          "internalType": "uint256",
          "name": "_totalShares",
          "type": "uint256"
        }
      ],
      "stateMutability": "nonpayable",
      "type": "constructor"
    },
    {
      "anonymous": false,
      "inputs": [
        {
          "indexed": true,
          "internalType": "address",
          "name": "from",
          "type": "address"
        },
        {
          "indexed": true,
          "internalType": "address",
          "name": "to",
          "type": "address"
        },
        {
          "indexed": false,
          "internalType": "uint256",
          "name": "shares",
          "type": "uint256"
        }
      ],
      "name": "SharesTransferred",
      "type": "event"
    },
    {
      "inputs": [
        {
          "internalType": "address",
          "name": "",
          "type": "address"
        }
      ],
      "name": "balances",
      "outputs": [
        {
          "internalType": "uint256",
          "name": "",
          "type": "uint256"
        }
      ],
      "stateMutability": "view",
      "type": "function"
    },
    {
      "inputs": [
        {
          "internalType": "address",
          "name": "account",
          "type": "address"
        }
      ],
      "name": "getBalance",
      "outputs": [
        {
          "internalType": "uint256",
          "name": "",
          "type": "uint256"
        }
      ],
      "stateMutability": "view",
      "type": "function"
    },
    {
      "inputs": [],
      "name": "name",
      "outputs": [
        {
          "internalType": "string",
          "name": "",
          "type": "string"
        }
      ],
      "stateMutability": "view",
      "type": "function"
    },
    {
      "inputs": [],
      "name": "owner",
      "outputs": [
        {
          "internalType": "address",
          "name": "",
          "type": "address"
        }
      ],
      "stateMutability": "view",
      "type": "function"
    },
    {
      "inputs": [],
      "name": "totalShares",
      "outputs": [
        {
          "internalType": "uint256",
          "name": "",
          "type": "uint256"
        }
      ],
      "stateMutability": "view",
      "type": "function"
    },
    {
      "inputs": [
        {
          "internalType": "address",
          "name": "to",
          "type": "address"
        },
        {
          "internalType": "uint256",
          "name": "shares",
          "type": "uint256"
        }
      ],
      "name": "transferShares",
      "outputs": [],
      "stateMutability": "nonpayable",
      "type": "function"
    }
  ],
  "bytecode": "0x60806040523480156200001157600080fd5b5060405162000ba538038062000ba583398181016040528101906200003791906200023f565b81600090805190602001906200004f92919062000106565b508060018190555033600260006101000a81548173ffffffffffffffffffffffffffffffffffffffff021916908373ffffffffffffffffffffffffffffffffffffffff1602179055508060036000600260009054906101000a900473ffffffffffffffffffffffffffffffffffffffff1673ffffffffffffffffffffffffffffffffffffffff1673ffffffffffffffffffffffffffffffffffffffff168152602001908152602001600020819055505050620003ee565b828054620001149062000340565b90600052602060002090601f01602090048101928262000138576000855562000184565b82601f106200015357805160ff191683800117855562000184565b8280016001018555821562000184579182015b828111156200018357825182559160200191906001019062000166565b5b50905062000193919062000197565b5090565b5b80821115620001b257600081600090555060010162000198565b5090565b6000620001cd620001c784620002cd565b62000299565b905082815260208101848484011115620001e657600080fd5b620001f38482856200030a565b509392505050565b600082601f8301126200020d57600080fd5b81516200021f848260208601620001b6565b91505092915050565b6000815190506200023981620003d4565b92915050565b600080604083850312156200025357600080fd5b600083015167ffffffffffffffff8111156200026e57600080fd5b6200027c85828601620001fb565b92505060206200028f8582860162000228565b9150509250929050565b6000604051905081810181811067ffffffffffffffff82111715620002c357620002c2620003a5565b5b8060405250919050565b600067ffffffffffffffff821115620002eb57620002ea620003a5565b5b601f19601f8301169050602081019050919050565b6000819050919050565b60005b838110156200032a5780820151818401526020810190506200030d565b838111156200033a576000848401525b50505050565b600060028204905060018216806200035957607f821691505b6020821081141562000370576200036f62000376565b5b50919050565b7f4e487b7100000000000000000000000000000000000000000000000000000000600052602260045260246000fd5b7f4e487b7100000000000000000000000000000000000000000000000000000000600052604160045260246000fd5b620003df8162000300565b8114620003eb57600080fd5b50565b6107a780620003fe6000396000f3fe608060405234801561001057600080fd5b50600436106100625760003560e01c806306fdde031461006757806327e235e3146100855780633a98ef39146100b55780638da5cb5b146100d35780638fcb4e5b146100f1578063f8b2cb4f1461010d575b600080fd5b61006f61013d565b60405161007c9190610530565b60405180910390f35b61009f600480360381019061009a9190610419565b6101cb565b6040516100ac9190610572565b60405180910390f35b6100bd6101e3565b6040516100ca9190610572565b60405180910390f35b6100db6101e9565b6040516100e89190610515565b60405180910390f35b61010b60048036038101906101069190610442565b61020f565b005b61012760048036038101906101229190610419565b6103a6565b6040516101349190610572565b60405180910390f35b6000805461014a906106a2565b80601f0160208091040260200160405190810160405280929190818152602001828054610176906106a2565b80156101c35780601f10610198576101008083540402835291602001916101c3565b820191906000526020600020905b8154815290600101906020018083116101a657829003601f168201915b505050505081565b60036020528060005260406000206000915090505481565b60015481565b600260009054906101000a900473ffffffffffffffffffffffffffffffffffffffff1681565b80600360003373ffffffffffffffffffffffffffffffffffffffff1673ffffffffffffffffffffffffffffffffffffffff168152602001908152602001600020541015610291576040517f08c379a000000000000000000000000000000000000000000000000000000000815260040161028890610552565b60405180910390fd5b80600360003373ffffffffffffffffffffffffffffffffffffffff1673ffffffffffffffffffffffffffffffffffffffff16815260200190815260200160002060008282546102e091906105ff565b9250508190555080600360008473ffffffffffffffffffffffffffffffffffffffff1673ffffffffffffffffffffffffffffffffffffffff168152602001908152602001600020600082825461033691906105a9565b925050819055508173ffffffffffffffffffffffffffffffffffffffff163373ffffffffffffffffffffffffffffffffffffffff167f99c01cd4f8275976ef33d24514b1694c8a9d5730d92e26996834343e09778e998360405161039a9190610572565b60405180910390a35050565b6000600360008373ffffffffffffffffffffffffffffffffffffffff1673ffffffffffffffffffffffffffffffffffffffff168152602001908152602001600020549050919050565b6000813590506103fe81610743565b92915050565b6000813590506104138161075a565b92915050565b60006020828403121561042b57600080fd5b6000610439848285016103ef565b91505092915050565b6000806040838503121561045557600080fd5b6000610463858286016103ef565b925050602061047485828601610404565b9150509250929050565b61048781610633565b82525050565b60006104988261058d565b6104a28185610598565b93506104b281856020860161066f565b6104bb81610732565b840191505092915050565b60006104d3601183610598565b91507f4e6f7420656e6f756768207368617265730000000000000000000000000000006000830152602082019050919050565b61050f81610665565b82525050565b600060208201905061052a600083018461047e565b92915050565b6000602082019050818103600083015261054a818461048d565b905092915050565b6000602082019050818103600083015261056b816104c6565b9050919050565b60006020820190506105876000830184610506565b92915050565b600081519050919050565b600082825260208201905092915050565b60006105b482610665565b91506105bf83610665565b9250827fffffffffffffffffffffffffffffffffffffffffffffffffffffffffffffffff038211156105f4576105f36106d4565b5b828201905092915050565b600061060a82610665565b915061061583610665565b925082821015610628576106276106d4565b5b828203905092915050565b600061063e82610645565b9050919050565b600073ffffffffffffffffffffffffffffffffffffffff82169050919050565b6000819050919050565b60005b8381101561068d578082015181840152602081019050610672565b8381111561069c576000848401525b50505050565b600060028204905060018216806106ba57607f821691505b602082108114156106ce576106cd610703565b5b50919050565b7f4e487b7100000000000000000000000000000000000000000000000000000000600052601160045260246000fd5b7f4e487b7100000000000000000000000000000000000000000000000000000000600052602260045260246000fd5b6000601f19601f8301169050919050565b61074c81610633565b811461075757600080fd5b50565b61076381610665565b811461076e57600080fd5b5056fea26469706673582212207118f8aa43599a14c63c20e6a369a0c9d1f218658cd2a485a940ecea4fbf795c64736f6c63430008000033",
  "linkReferences": {},
  "deployedLinkReferences": {}
}